{
  "transactions": [
    {
      "hash": "0x2703c47f2880cfac5f8c656912498175669a9b1547e50685a01d80ddf58fc5de",
      "transactionType": "CALL",
      "contractName": null,
      "contractAddress": "0x66faa0257bf68b373802617b6d0c503053ee1c9f",
      "function": "mint()",
      "arguments": [],
      "transaction": {
        "from": "0x7a023e867369c1258b356b89a8864c799ef59959",
        "to": "0x66faa0257bf68b373802617b6d0c503053ee1c9f",
        "gas": "0x289f3",
        "value": "0x0",
        "input": "0x1249c58b",
        "nonce": "0x102",
        "chainId": "0x72"
      },
      "additionalContracts": [],
      "isFixedGasLimit": false
    },
    {
      "hash": "0xf775e0ffa8b1c14a91a7ca78cf550106fae141a8d74263b0367afb047b1db642",
      "transactionType": "CALL",
      "contractName": null,
      "contractAddress": "0x66faa0257bf68b373802617b6d0c503053ee1c9f",
      "function": "updateMilestone(uint256,(bytes32[],(bytes32,bytes32,uint64,uint64,(string,string,string,string,string,string,string),(bytes))))",
      "arguments": [
        "1",
        "([0xc40fea41f93004770eb81ba0406d5f28ab591c20a6802232e815bc810fe46208, 0xd904e0c26e1f72caac2389bb94ff2f4115fa2064071574b35a14c4c7a40d51a9, 0x317f067673b236a522219266ea80c5929317b4b3221ee1d7f94f42dbba3dcc7d, 0x3dc106b16d1672be363597401ac02c608e925f006b482fdb8cda6af721373881, 0x1479b49784fd44eef7bc4dfde79b9e906961851143c5aa8d0df17a7654d7fcca], (0x576562324a736f6e000000000000000000000000000000000000000000000000, 0x5075626c69635765623200000000000000000000000000000000000000000000, 1053485, 0, (https://e433e06bac25.ngrok-free.app/get-course-progress, GET, {\\\"Content-Type\\\":\\\"application/json\\\"}, {\\\"learner_id\\\":\\\"did:privy:cmd2wmiz80171kz0mmwjh1acf\\\", \\\"course_id\\\":\\\"4\\\"}, {}, {course_id: .course_id, learner_id: .learner_id, progress_percent: .progress_percent}, {\\\"components\\\": [{\\\"internalType\\\": \\\"uint256\\\", \\\"name\\\": \\\"course_id\\\", \\\"type\\\": \\\"uint256\\\"},{\\\"internalType\\\": \\\"string\\\", \\\"name\\\": \\\"learner_id\\\", \\\"type\\\": \\\"string\\\"},{\\\"internalType\\\": \\\"uint256\\\", \\\"name\\\": \\\"progress_percent\\\", \\\"type\\\": \\\"uint256\\\"}],\\\"name\\\": \\\"task\\\",\\\"type\\\": \\\"tuple\\\"}), (0x000000000000000000000000000000000000000000000000000000000000002000000000000000000000000000000000000000000000000000000000000000040000000000000000000000000000000000000000000000000000000000000060000000000000000000000000000000000000000000000000000000000000006400000000000000000000000000000000000000000000000000000000000000236469643a70726976793a636d6432776d697a38303137316b7a306d6d776a68316163660000000000000000000000000000000000000000000000000000000000)))"
      ],
      "transaction": {
        "from": "0x7a023e867369c1258b356b89a8864c799ef59959",
        "to": "0x66faa0257bf68b373802617b6d0c503053ee1c9f",
        "gas": "0x28168",
        "value": "0x0",
        "input": "0x8da5617200000000000000000000000000000000000000000000000000000000000000010000000000000000000000000000000000000000000000000000000000000040000000000000000000000000000000000000000000000000000000000000004000000000000000000000000000000000000000000000000000000000000001000000000000000000000000000000000000000000000000000000000000000005c40fea41f93004770eb81ba0406d5f28ab591c20a6802232e815bc810fe46208d904e0c26e1f72caac2389bb94ff2f4115fa2064071574b35a14c4c7a40d51a9317f067673b236a522219266ea80c5929317b4b3221ee1d7f94f42dbba3dcc7d3dc106b16d1672be363597401ac02c608e925f006b482fdb8cda6af7213738811479b49784fd44eef7bc4dfde79b9e906961851143c5aa8d0df17a7654d7fcca576562324a736f6e0000000000000000000000000000000000000000000000005075626c69635765623200000000000000000000000000000000000000000000000000000000000000000000000000000000000000000000000000000010132d000000000000000000000000000000000000000000000000000000000000000000000000000000000000000000000000000000000000000000000000000000c0000000000000000000000000000000000000000000000000000000000000052000000000000000000000000000000000000000000000000000000000000000e00000000000000000000000000000000000000000000000000000000000000140000000000000000000000000000000000000000000000000000000000000018000000000000000000000000000000000000000000000000000000000000001e0000000000000000000000000000000000000000000000000000000000000026000000000000000000000000000000000000000000000000000000000000002a00000000000000000000000000000000000000000000000000000000000000320000000000000000000000000000000000000000000000000000000000000003768747470733a2f2f6534333365303662616332352e6e67726f6b2d667265652e6170702f6765742d636f757273652d70726f67726573730000000000000000000000000000000000000000000000000000000000000000000000000000000003474554000000000000000000000000000000000000000000000000000000000000000000000000000000000000000000000000000000000000000000000000237b22436f6e74656e742d54797065223a226170706c69636174696f6e2f6a736f6e227d000000000000000000000000000000000000000000000000000000000000000000000000000000000000000000000000000000000000000000000000457b226c6561726e65725f6964223a226469643a70726976793a636d6432776d697a38303137316b7a306d6d776a6831616366222c2022636f757273655f6964223a2234227d00000000000000000000000000000000000000000000000000000000000000000000000000000000000000000000000000000000000000000000027b7d00000000000000000000000000000000000000000000000000000000000000000000000000000000000000000000000000000000000000000000000000557b636f757273655f69643a202e636f757273655f69642c206c6561726e65725f69643a202e6c6561726e65725f69642c2070726f67726573735f70657263656e743a202e70726f67726573735f70657263656e747d000000000000000000000000000000000000000000000000000000000000000000000000000000000001027b22636f6d706f6e656e7473223a205b7b22696e7465726e616c54797065223a202275696e74323536222c20226e616d65223a2022636f757273655f6964222c202274797065223a202275696e74323536227d2c7b22696e7465726e616c54797065223a2022737472696e67222c20226e616d65223a20226c6561726e65725f6964222c202274797065223a2022737472696e67227d2c7b22696e7465726e616c54797065223a202275696e74323536222c20226e616d65223a202270726f67726573735f70657263656e74222c202274797065223a202275696e74323536227d5d2c226e616d65223a20227461736b222c2274797065223a20227475706c65227d000000000000000000000000000000000000000000000000000000000000000000000000000000000000000000000000000000000000000000000000002000000000000000000000000000000000000000000000000000000000000000e0000000000000000000000000000000000000000000000000000000000000002000000000000000000000000000000000000000000000000000000000000000040000000000000000000000000000000000000000000000000000000000000060000000000000000000000000000000000000000000000000000000000000006400000000000000000000000000000000000000000000000000000000000000236469643a70726976793a636d6432776d697a38303137316b7a306d6d776a68316163660000000000000000000000000000000000000000000000000000000000",
        "nonce": "0x103",
        "chainId": "0x72"
      },
      "additionalContracts": [],
      "isFixedGasLimit": false
    }
  ],
  "receipts": [
    {
      "status": "0x1",
      "cumulativeGasUsed": "0x1d68e",
      "logs": [
        {
          "address": "0x66faa0257bf68b373802617b6d0c503053ee1c9f",
          "topics": [
            "0xddf252ad1be2c89b69c2b068fc378daa952ba7f163c4a11628f55a4df523b3ef",
            "0x0000000000000000000000000000000000000000000000000000000000000000",
            "0x0000000000000000000000007a023e867369c1258b356b89a8864c799ef59959",
            "0x0000000000000000000000000000000000000000000000000000000000000001"
          ],
          "data": "0x",
          "blockHash": "0x1d0a2711b8901a59808261e7e4b231488ab8564aded0c36453241b9e34c96c5d",
          "blockNumber": "0x13260e0",
          "transactionHash": "0x2703c47f2880cfac5f8c656912498175669a9b1547e50685a01d80ddf58fc5de",
          "transactionIndex": "0x0",
          "logIndex": "0x0",
          "removed": false
        },
        {
          "address": "0x66faa0257bf68b373802617b6d0c503053ee1c9f",
          "topics": [
            "0xb358b8eab08a785470d6d916be8339d7c7bd13118e84a9fc58215645167ae9bd",
            "0x0000000000000000000000007a023e867369c1258b356b89a8864c799ef59959",
            "0x0000000000000000000000000000000000000000000000000000000000000001"
          ],
          "data": "0x",
          "blockHash": "0x1d0a2711b8901a59808261e7e4b231488ab8564aded0c36453241b9e34c96c5d",
          "blockNumber": "0x13260e0",
          "transactionHash": "0x2703c47f2880cfac5f8c656912498175669a9b1547e50685a01d80ddf58fc5de",
          "transactionIndex": "0x0",
          "logIndex": "0x1",
          "removed": false
        },
        {
          "address": "0x1000000000000000000000000000000000000002",
          "topics": [
            "0xe7aa66356adbd5e839ef210626f6d8f6f72109c17fadf4c4f9ca82b315ae79b4"
          ],
          "data": "0x000000000000000000000000c738fdcde9cd2fbd72618d36ed71008b8d001ba4000000000000000000000000000000000000000000000000000000000000421a",
          "blockHash": "0x1d0a2711b8901a59808261e7e4b231488ab8564aded0c36453241b9e34c96c5d",
          "blockNumber": "0x13260e0",
          "transactionHash": "0x2703c47f2880cfac5f8c656912498175669a9b1547e50685a01d80ddf58fc5de",
          "transactionIndex": "0x0",
          "logIndex": "0x2",
          "removed": false
        },
        {
          "address": "0x1000000000000000000000000000000000000002",
          "topics": [
            "0xe7aa66356adbd5e839ef210626f6d8f6f72109c17fadf4c4f9ca82b315ae79b4"
          ],
          "data": "0x000000000000000000000000d2a1bb23eb350814a30dd6f9de78bb2c8fdd9f1d000000000000000000000000000000000000000000000000000000000000328e",
          "blockHash": "0x1d0a2711b8901a59808261e7e4b231488ab8564aded0c36453241b9e34c96c5d",
          "blockNumber": "0x13260e0",
          "transactionHash": "0x2703c47f2880cfac5f8c656912498175669a9b1547e50685a01d80ddf58fc5de",
          "transactionIndex": "0x0",
          "logIndex": "0x3",
          "removed": false
        },
        {
          "address": "0x1000000000000000000000000000000000000002",
          "topics": [
            "0xe7aa66356adbd5e839ef210626f6d8f6f72109c17fadf4c4f9ca82b315ae79b4"
          ],
          "data": "0x0000000000000000000000006892bdbbb14e1c9bd46bf31e7bac94d038fc82a6000000000000000000000000000000000000000000000000000000000000422d",
          "blockHash": "0x1d0a2711b8901a59808261e7e4b231488ab8564aded0c36453241b9e34c96c5d",
          "blockNumber": "0x13260e0",
          "transactionHash": "0x2703c47f2880cfac5f8c656912498175669a9b1547e50685a01d80ddf58fc5de",
          "transactionIndex": "0x0",
          "logIndex": "0x4",
          "removed": false
        },
        {
          "address": "0x1000000000000000000000000000000000000002",
          "topics": [
            "0xe7aa66356adbd5e839ef210626f6d8f6f72109c17fadf4c4f9ca82b315ae79b4"
          ],
          "data": "0x000000000000000000000000bd33bdff04c357f7fc019e72d0504c24cf4aa0100000000000000000000000000000000000000000000000000000000000008f11",
          "blockHash": "0x1d0a2711b8901a59808261e7e4b231488ab8564aded0c36453241b9e34c96c5d",
          "blockNumber": "0x13260e0",
          "transactionHash": "0x2703c47f2880cfac5f8c656912498175669a9b1547e50685a01d80ddf58fc5de",
          "transactionIndex": "0x0",
          "logIndex": "0x5",
          "removed": false
        },
        {
          "address": "0x1000000000000000000000000000000000000002",
          "topics": [
            "0xe7aa66356adbd5e839ef210626f6d8f6f72109c17fadf4c4f9ca82b315ae79b4"
          ],
          "data": "0x000000000000000000000000a90db6d10f856799b10ef2a77ebcbf460ac71e5200000000000000000000000000000000000000000000000000000000000024f3",
          "blockHash": "0x1d0a2711b8901a59808261e7e4b231488ab8564aded0c36453241b9e34c96c5d",
          "blockNumber": "0x13260e0",
          "transactionHash": "0x2703c47f2880cfac5f8c656912498175669a9b1547e50685a01d80ddf58fc5de",
          "transactionIndex": "0x0",
          "logIndex": "0x6",
          "removed": false
        },
        {
          "address": "0x1000000000000000000000000000000000000002",
          "topics": [
            "0xe7aa66356adbd5e839ef210626f6d8f6f72109c17fadf4c4f9ca82b315ae79b4"
          ],
          "data": "0x0000000000000000000000000b162ca3acf3482d3357972e12d794434085d8390000000000000000000000000000000000000000000000000000000000012263",
          "blockHash": "0x1d0a2711b8901a59808261e7e4b231488ab8564aded0c36453241b9e34c96c5d",
          "blockNumber": "0x13260e0",
          "transactionHash": "0x2703c47f2880cfac5f8c656912498175669a9b1547e50685a01d80ddf58fc5de",
          "transactionIndex": "0x0",
          "logIndex": "0x7",
          "removed": false
        }
      ],
      "logsBloom": "0x00020000400000000000000000000000000000000000000000000000010000000001800000000000000000000000000000000000000000000000000000040000000000000000000000400008000000000000000000040000000080000000000000000000020000000000000000000800000000000000000001000010000000000002000000000000000000000000000000000000000000000000000400001000080000000000000000000000000000000000000000000002000000000000000000000002000000000000000000000000000000000000000000000400000060000000000000000000000000000000000000000000000000000000000000000000",
      "type": "0x2",
      "transactionHash": "0x2703c47f2880cfac5f8c656912498175669a9b1547e50685a01d80ddf58fc5de",
      "transactionIndex": "0x0",
      "blockHash": "0x1d0a2711b8901a59808261e7e4b231488ab8564aded0c36453241b9e34c96c5d",
      "blockNumber": "0x13260e0",
      "gasUsed": "0x1d68e",
      "effectiveGasPrice": "0xe8d4a5100",
      "from": "0x7a023e867369c1258b356b89a8864c799ef59959",
      "to": "0x66faa0257bf68b373802617b6d0c503053ee1c9f",
      "contractAddress": null
    },
    {
      "status": "0x1",
      "cumulativeGasUsed": "0x1b692",
      "logs": [
        {
          "address": "0x66faa0257bf68b373802617b6d0c503053ee1c9f",
          "topics": [
            "0xca1aed8567430fe6328b2711a2e911ea02ad483330d14111de9c46f183d125af",
            "0x0000000000000000000000007a023e867369c1258b356b89a8864c799ef59959",
            "0x0000000000000000000000000000000000000000000000000000000000000001"
          ],
          "data": "0x0000000000000000000000000000000000000000000000000000000000000001",
          "blockHash": "0x3ff2652cc5daa98a949a9bbc379111594615fe4fb1f764093f5362cb56ce7373",
          "blockNumber": "0x13260e1",
          "transactionHash": "0xf775e0ffa8b1c14a91a7ca78cf550106fae141a8d74263b0367afb047b1db642",
          "transactionIndex": "0x0",
          "logIndex": "0x0",
          "removed": false
        },
        {
          "address": "0x1000000000000000000000000000000000000002",
          "topics": [
            "0xe7aa66356adbd5e839ef210626f6d8f6f72109c17fadf4c4f9ca82b315ae79b4"
          ],
          "data": "0x000000000000000000000000c738fdcde9cd2fbd72618d36ed71008b8d001ba4000000000000000000000000000000000000000000000000000000000000421a",
          "blockHash": "0x3ff2652cc5daa98a949a9bbc379111594615fe4fb1f764093f5362cb56ce7373",
          "blockNumber": "0x13260e1",
          "transactionHash": "0xf775e0ffa8b1c14a91a7ca78cf550106fae141a8d74263b0367afb047b1db642",
          "transactionIndex": "0x0",
          "logIndex": "0x1",
          "removed": false
        },
        {
          "address": "0x1000000000000000000000000000000000000002",
          "topics": [
            "0xe7aa66356adbd5e839ef210626f6d8f6f72109c17fadf4c4f9ca82b315ae79b4"
          ],
          "data": "0x000000000000000000000000d2a1bb23eb350814a30dd6f9de78bb2c8fdd9f1d000000000000000000000000000000000000000000000000000000000000328e",
          "blockHash": "0x3ff2652cc5daa98a949a9bbc379111594615fe4fb1f764093f5362cb56ce7373",
          "blockNumber": "0x13260e1",
          "transactionHash": "0xf775e0ffa8b1c14a91a7ca78cf550106fae141a8d74263b0367afb047b1db642",
          "transactionIndex": "0x0",
          "logIndex": "0x2",
          "removed": false
        },
        {
          "address": "0x1000000000000000000000000000000000000002",
          "topics": [
            "0xe7aa66356adbd5e839ef210626f6d8f6f72109c17fadf4c4f9ca82b315ae79b4"
          ],
          "data": "0x0000000000000000000000006892bdbbb14e1c9bd46bf31e7bac94d038fc82a6000000000000000000000000000000000000000000000000000000000000422d",
          "blockHash": "0x3ff2652cc5daa98a949a9bbc379111594615fe4fb1f764093f5362cb56ce7373",
          "blockNumber": "0x13260e1",
          "transactionHash": "0xf775e0ffa8b1c14a91a7ca78cf550106fae141a8d74263b0367afb047b1db642",
          "transactionIndex": "0x0",
          "logIndex": "0x3",
          "removed": false
        },
        {
          "address": "0x1000000000000000000000000000000000000002",
          "topics": [
            "0xe7aa66356adbd5e839ef210626f6d8f6f72109c17fadf4c4f9ca82b315ae79b4"
          ],
          "data": "0x000000000000000000000000bd33bdff04c357f7fc019e72d0504c24cf4aa0100000000000000000000000000000000000000000000000000000000000008f11",
          "blockHash": "0x3ff2652cc5daa98a949a9bbc379111594615fe4fb1f764093f5362cb56ce7373",
          "blockNumber": "0x13260e1",
          "transactionHash": "0xf775e0ffa8b1c14a91a7ca78cf550106fae141a8d74263b0367afb047b1db642",
          "transactionIndex": "0x0",
          "logIndex": "0x4",
          "removed": false
        },
        {
          "address": "0x1000000000000000000000000000000000000002",
          "topics": [
            "0xe7aa66356adbd5e839ef210626f6d8f6f72109c17fadf4c4f9ca82b315ae79b4"
          ],
          "data": "0x000000000000000000000000a90db6d10f856799b10ef2a77ebcbf460ac71e5200000000000000000000000000000000000000000000000000000000000024f3",
          "blockHash": "0x3ff2652cc5daa98a949a9bbc379111594615fe4fb1f764093f5362cb56ce7373",
          "blockNumber": "0x13260e1",
          "transactionHash": "0xf775e0ffa8b1c14a91a7ca78cf550106fae141a8d74263b0367afb047b1db642",
          "transactionIndex": "0x0",
          "logIndex": "0x5",
          "removed": false
        },
        {
          "address": "0x1000000000000000000000000000000000000002",
          "topics": [
            "0xe7aa66356adbd5e839ef210626f6d8f6f72109c17fadf4c4f9ca82b315ae79b4"
          ],
          "data": "0x0000000000000000000000000b162ca3acf3482d3357972e12d794434085d83900000000000000000000000000000000000000000000000000000000000154c5",
          "blockHash": "0x3ff2652cc5daa98a949a9bbc379111594615fe4fb1f764093f5362cb56ce7373",
          "blockNumber": "0x13260e1",
          "transactionHash": "0xf775e0ffa8b1c14a91a7ca78cf550106fae141a8d74263b0367afb047b1db642",
          "transactionIndex": "0x0",
          "logIndex": "0x6",
          "removed": false
        }
      ],
      "logsBloom": "0x00020000400000000000000000000000000000000000000000400000000000000001000000000000000000000000000000000000000000000000000000040000000000000000000000400000000000000000000000040000000080000000000000000000000000000000000000000000000000000000000001000010000000004002000000000000000000000000000000000000000000000000000400000000080000400000000000000000000000000000000000000002000000000000000000000000000000000000000000000000000000000000000000000400000040000000000000000000000000000000000000000000000000000000000000000000",
      "type": "0x2",
      "transactionHash": "0xf775e0ffa8b1c14a91a7ca78cf550106fae141a8d74263b0367afb047b1db642",
      "transactionIndex": "0x0",
      "blockHash": "0x3ff2652cc5daa98a949a9bbc379111594615fe4fb1f764093f5362cb56ce7373",
      "blockNumber": "0x13260e1",
      "gasUsed": "0x1b692",
      "effectiveGasPrice": "0xe8d4a5100",
      "from": "0x7a023e867369c1258b356b89a8864c799ef59959",
      "to": "0x66faa0257bf68b373802617b6d0c503053ee1c9f",
      "contractAddress": null
    }
  ],
  "libraries": [],
  "pending": [],
  "returns": {},
  "timestamp": 1753243981683,
  "chain": 114,
  "commit": "b1c665b"
}