{
  "transactions": [
    {
      "hash": "0xa5668fa6c49b8eaa1e965a24ac3e42d52b9f28fada0e9d291c5cfc731fc39302",
      "transactionType": "CALL",
      "contractName": null,
      "contractAddress": "0x48ac463d7975828989331f4de43341627b9c5f1d",
      "function": "requestAttestation(bytes)",
      "arguments": [
        "0x576562324a736f6e0000000000000000000000000000000000000000000000005075626c69635765623200000000000000000000000000000000000000000000c69254586c046b1394616cbf98dc97ef115a492ff5dbcd9392cd775a102b2acc000000000000000000000000000000000000000000000000000000000000002000000000000000000000000000000000000000000000000000000000000000e00000000000000000000000000000000000000000000000000000000000000120000000000000000000000000000000000000000000000000000000000000016000000000000000000000000000000000000000000000000000000000000001a000000000000000000000000000000000000000000000000000000000000001e0000000000000000000000000000000000000000000000000000000000000022000000000000000000000000000000000000000000000000000000000000002c0000000000000000000000000000000000000000000000000000000000000001f68747470733a2f2f73776170692e696e666f2f6170692f70656f706c652f330000000000000000000000000000000000000000000000000000000000000000034745540000000000000000000000000000000000000000000000000000000000000000000000000000000000000000000000000000000000000000000000001d7b22436f6e74656e742d54797065223a22746578742f706c61696e227d00000000000000000000000000000000000000000000000000000000000000000000027b7d00000000000000000000000000000000000000000000000000000000000000000000000000000000000000000000000000000000000000000000000000027b7d00000000000000000000000000000000000000000000000000000000000000000000000000000000000000000000000000000000000000000000000000787b6e616d653a202e6e616d652c206865696768743a202e6865696768742c206d6173733a202e6d6173732c206e756d6265724f6646696c6d733a202e66696c6d73207c206c656e6774682c207569643a20282e75726c207c2073706c697428222f2229207c202e5b2d315d207c20746f6e756d626572297d000000000000000000000000000000000000000000000000000000000000000000000000000001737b22636f6d706f6e656e7473223a205b7b22696e7465726e616c54797065223a2022737472696e67222c20226e616d65223a20226e616d65222c202274797065223a2022737472696e67227d2c7b22696e7465726e616c54797065223a202275696e74323536222c20226e616d65223a2022686569676874222c202274797065223a202275696e74323536227d2c7b22696e7465726e616c54797065223a202275696e74323536222c20226e616d65223a20226d617373222c202274797065223a202275696e74323536227d2c7b22696e7465726e616c54797065223a202275696e74323536222c20226e616d65223a20226e756d6265724f6646696c6d73222c202274797065223a202275696e74323536227d2c7b22696e7465726e616c54797065223a202275696e74323536222c20226e616d65223a2022756964222c202274797065223a202275696e74323536227d5d2c226e616d65223a20227461736b222c2274797065223a20227475706c65227d00000000000000000000000000"
      ],
      "transaction": {
        "from": "0x7a023e867369c1258b356b89a8864c799ef59959",
        "to": "0x48ac463d7975828989331f4de43341627b9c5f1d",
        "gas": "0x24bee",
        "value": "0x3e8",
        "input": "0x6238f354000000000000000000000000000000000000000000000000000000000000002000000000000000000000000000000000000000000000000000000000000004e0576562324a736f6e0000000000000000000000000000000000000000000000005075626c69635765623200000000000000000000000000000000000000000000c69254586c046b1394616cbf98dc97ef115a492ff5dbcd9392cd775a102b2acc000000000000000000000000000000000000000000000000000000000000002000000000000000000000000000000000000000000000000000000000000000e00000000000000000000000000000000000000000000000000000000000000120000000000000000000000000000000000000000000000000000000000000016000000000000000000000000000000000000000000000000000000000000001a000000000000000000000000000000000000000000000000000000000000001e0000000000000000000000000000000000000000000000000000000000000022000000000000000000000000000000000000000000000000000000000000002c0000000000000000000000000000000000000000000000000000000000000001f68747470733a2f2f73776170692e696e666f2f6170692f70656f706c652f330000000000000000000000000000000000000000000000000000000000000000034745540000000000000000000000000000000000000000000000000000000000000000000000000000000000000000000000000000000000000000000000001d7b22436f6e74656e742d54797065223a22746578742f706c61696e227d00000000000000000000000000000000000000000000000000000000000000000000027b7d00000000000000000000000000000000000000000000000000000000000000000000000000000000000000000000000000000000000000000000000000027b7d00000000000000000000000000000000000000000000000000000000000000000000000000000000000000000000000000000000000000000000000000787b6e616d653a202e6e616d652c206865696768743a202e6865696768742c206d6173733a202e6d6173732c206e756d6265724f6646696c6d733a202e66696c6d73207c206c656e6774682c207569643a20282e75726c207c2073706c697428222f2229207c202e5b2d315d207c20746f6e756d626572297d000000000000000000000000000000000000000000000000000000000000000000000000000001737b22636f6d706f6e656e7473223a205b7b22696e7465726e616c54797065223a2022737472696e67222c20226e616d65223a20226e616d65222c202274797065223a2022737472696e67227d2c7b22696e7465726e616c54797065223a202275696e74323536222c20226e616d65223a2022686569676874222c202274797065223a202275696e74323536227d2c7b22696e7465726e616c54797065223a202275696e74323536222c20226e616d65223a20226d617373222c202274797065223a202275696e74323536227d2c7b22696e7465726e616c54797065223a202275696e74323536222c20226e616d65223a20226e756d6265724f6646696c6d73222c202274797065223a202275696e74323536227d2c7b22696e7465726e616c54797065223a202275696e74323536222c20226e616d65223a2022756964222c202274797065223a202275696e74323536227d5d2c226e616d65223a20227461736b222c2274797065223a20227475706c65227d00000000000000000000000000",
        "nonce": "0xf3",
        "chainId": "0x72"
      },
      "additionalContracts": [],
      "isFixedGasLimit": false
    }
  ],
  "receipts": [
    {
      "status": "0x1",
      "cumulativeGasUsed": "0x19201",
      "logs": [
        {
          "address": "0x48ac463d7975828989331f4de43341627b9c5f1d",
          "topics": [
            "0x251377668af6553101c9bb094ba89c0c536783e005e203625e6cd57345918cc9"
          ],
          "data": "0x000000000000000000000000000000000000000000000000000000000000004000000000000000000000000000000000000000000000000000000000000003e800000000000000000000000000000000000000000000000000000000000004e0576562324a736f6e0000000000000000000000000000000000000000000000005075626c69635765623200000000000000000000000000000000000000000000c69254586c046b1394616cbf98dc97ef115a492ff5dbcd9392cd775a102b2acc000000000000000000000000000000000000000000000000000000000000002000000000000000000000000000000000000000000000000000000000000000e00000000000000000000000000000000000000000000000000000000000000120000000000000000000000000000000000000000000000000000000000000016000000000000000000000000000000000000000000000000000000000000001a000000000000000000000000000000000000000000000000000000000000001e0000000000000000000000000000000000000000000000000000000000000022000000000000000000000000000000000000000000000000000000000000002c0000000000000000000000000000000000000000000000000000000000000001f68747470733a2f2f73776170692e696e666f2f6170692f70656f706c652f330000000000000000000000000000000000000000000000000000000000000000034745540000000000000000000000000000000000000000000000000000000000000000000000000000000000000000000000000000000000000000000000001d7b22436f6e74656e742d54797065223a22746578742f706c61696e227d00000000000000000000000000000000000000000000000000000000000000000000027b7d00000000000000000000000000000000000000000000000000000000000000000000000000000000000000000000000000000000000000000000000000027b7d00000000000000000000000000000000000000000000000000000000000000000000000000000000000000000000000000000000000000000000000000787b6e616d653a202e6e616d652c206865696768743a202e6865696768742c206d6173733a202e6d6173732c206e756d6265724f6646696c6d733a202e66696c6d73207c206c656e6774682c207569643a20282e75726c207c2073706c697428222f2229207c202e5b2d315d207c20746f6e756d626572297d000000000000000000000000000000000000000000000000000000000000000000000000000001737b22636f6d706f6e656e7473223a205b7b22696e7465726e616c54797065223a2022737472696e67222c20226e616d65223a20226e616d65222c202274797065223a2022737472696e67227d2c7b22696e7465726e616c54797065223a202275696e74323536222c20226e616d65223a2022686569676874222c202274797065223a202275696e74323536227d2c7b22696e7465726e616c54797065223a202275696e74323536222c20226e616d65223a20226d617373222c202274797065223a202275696e74323536227d2c7b22696e7465726e616c54797065223a202275696e74323536222c20226e616d65223a20226e756d6265724f6646696c6d73222c202274797065223a202275696e74323536227d2c7b22696e7465726e616c54797065223a202275696e74323536222c20226e616d65223a2022756964222c202274797065223a202275696e74323536227d5d2c226e616d65223a20227461736b222c2274797065223a20227475706c65227d00000000000000000000000000",
          "blockHash": "0x9d3b28ef7c79d159ff71f3fc814da170dd6de2578c74128440b320528e8d8045",
          "blockNumber": "0x131e383",
          "transactionHash": "0xa5668fa6c49b8eaa1e965a24ac3e42d52b9f28fada0e9d291c5cfc731fc39302",
          "transactionIndex": "0x0",
          "logIndex": "0x0",
          "removed": false
        },
        {
          "address": "0x1000000000000000000000000000000000000002",
          "topics": [
            "0xe7aa66356adbd5e839ef210626f6d8f6f72109c17fadf4c4f9ca82b315ae79b4"
          ],
          "data": "0x000000000000000000000000c738fdcde9cd2fbd72618d36ed71008b8d001ba4000000000000000000000000000000000000000000000000000000000000421a",
          "blockHash": "0x9d3b28ef7c79d159ff71f3fc814da170dd6de2578c74128440b320528e8d8045",
          "blockNumber": "0x131e383",
          "transactionHash": "0xa5668fa6c49b8eaa1e965a24ac3e42d52b9f28fada0e9d291c5cfc731fc39302",
          "transactionIndex": "0x0",
          "logIndex": "0x1",
          "removed": false
        },
        {
          "address": "0x1000000000000000000000000000000000000002",
          "topics": [
            "0xe7aa66356adbd5e839ef210626f6d8f6f72109c17fadf4c4f9ca82b315ae79b4"
          ],
          "data": "0x000000000000000000000000d2a1bb23eb350814a30dd6f9de78bb2c8fdd9f1d0000000000000000000000000000000000000000000000000000000000004442",
          "blockHash": "0x9d3b28ef7c79d159ff71f3fc814da170dd6de2578c74128440b320528e8d8045",
          "blockNumber": "0x131e383",
          "transactionHash": "0xa5668fa6c49b8eaa1e965a24ac3e42d52b9f28fada0e9d291c5cfc731fc39302",
          "transactionIndex": "0x0",
          "logIndex": "0x2",
          "removed": false
        },
        {
          "address": "0x1000000000000000000000000000000000000002",
          "topics": [
            "0xe7aa66356adbd5e839ef210626f6d8f6f72109c17fadf4c4f9ca82b315ae79b4"
          ],
          "data": "0x0000000000000000000000006892bdbbb14e1c9bd46bf31e7bac94d038fc82a6000000000000000000000000000000000000000000000000000000000000422d",
          "blockHash": "0x9d3b28ef7c79d159ff71f3fc814da170dd6de2578c74128440b320528e8d8045",
          "blockNumber": "0x131e383",
          "transactionHash": "0xa5668fa6c49b8eaa1e965a24ac3e42d52b9f28fada0e9d291c5cfc731fc39302",
          "transactionIndex": "0x0",
          "logIndex": "0x3",
          "removed": false
        },
        {
          "address": "0x1000000000000000000000000000000000000002",
          "topics": [
            "0xe7aa66356adbd5e839ef210626f6d8f6f72109c17fadf4c4f9ca82b315ae79b4"
          ],
          "data": "0x000000000000000000000000bd33bdff04c357f7fc019e72d0504c24cf4aa0100000000000000000000000000000000000000000000000000000000000008f11",
          "blockHash": "0x9d3b28ef7c79d159ff71f3fc814da170dd6de2578c74128440b320528e8d8045",
          "blockNumber": "0x131e383",
          "transactionHash": "0xa5668fa6c49b8eaa1e965a24ac3e42d52b9f28fada0e9d291c5cfc731fc39302",
          "transactionIndex": "0x0",
          "logIndex": "0x4",
          "removed": false
        },
        {
          "address": "0x1000000000000000000000000000000000000002",
          "topics": [
            "0xe7aa66356adbd5e839ef210626f6d8f6f72109c17fadf4c4f9ca82b315ae79b4"
          ],
          "data": "0x000000000000000000000000a90db6d10f856799b10ef2a77ebcbf460ac71e52000000000000000000000000000000000000000000000000000000000000135f",
          "blockHash": "0x9d3b28ef7c79d159ff71f3fc814da170dd6de2578c74128440b320528e8d8045",
          "blockNumber": "0x131e383",
          "transactionHash": "0xa5668fa6c49b8eaa1e965a24ac3e42d52b9f28fada0e9d291c5cfc731fc39302",
          "transactionIndex": "0x0",
          "logIndex": "0x5",
          "removed": false
        },
        {
          "address": "0x1000000000000000000000000000000000000002",
          "topics": [
            "0xe7aa66356adbd5e839ef210626f6d8f6f72109c17fadf4c4f9ca82b315ae79b4"
          ],
          "data": "0x0000000000000000000000000b162ca3acf3482d3357972e12d794434085d8390000000000000000000000000000000000000000000000000000000000012263",
          "blockHash": "0x9d3b28ef7c79d159ff71f3fc814da170dd6de2578c74128440b320528e8d8045",
          "blockNumber": "0x131e383",
          "transactionHash": "0xa5668fa6c49b8eaa1e965a24ac3e42d52b9f28fada0e9d291c5cfc731fc39302",
          "transactionIndex": "0x0",
          "logIndex": "0x6",
          "removed": false
        }
      ],
      "logsBloom": "0x00020000000000000000000000000000000000000000000000000000000000000000000000000000000000000000000000000000000000000000000000000004000000000004000000400000000000000000000000000000000080000000000000000000000000000000000000000000000000000100000001000000000000000000000000000000008000000000000000000000000000000000000400000000080000020000000000000000000000000000000000000000000000000000000000002000000000000000000000000000000000000000000000000000000000000000000000000000000000000000000000000000000000000000000000000000",
      "type": "0x2",
      "transactionHash": "0xa5668fa6c49b8eaa1e965a24ac3e42d52b9f28fada0e9d291c5cfc731fc39302",
      "transactionIndex": "0x0",
      "blockHash": "0x9d3b28ef7c79d159ff71f3fc814da170dd6de2578c74128440b320528e8d8045",
      "blockNumber": "0x131e383",
      "gasUsed": "0x19201",
      "effectiveGasPrice": "0xe8d4a5100",
      "from": "0x7a023e867369c1258b356b89a8864c799ef59959",
      "to": "0x48ac463d7975828989331f4de43341627b9c5f1d",
      "contractAddress": null
    }
  ],
  "libraries": [],
  "pending": [],
  "returns": {},
  "timestamp": 1753159484751,
  "chain": 114,
  "commit": "f66fcef"
}