{
  "transactions": [
    {
      "hash": "0x85c171bde088330d1282d5900ac00a855ddae2d3f5488b05bbb831f9cc15e21f",
      "transactionType": "CALL",
      "contractName": null,
      "contractAddress": "0x131d3136c67be887a0ae5435d8adf242ef60d3e9",
      "function": "addCharacter((bytes32[],(bytes32,bytes32,uint64,uint64,(string,string,string,string,string,string,string),(bytes))))",
      "arguments": [
        "([0xfce227143e1556706d6a37ef96d3699033a017e91ab0a3d96a62e67d5e052236, 0x0d497be6793493c1d0e7e76a4e4bd740346d850c1a791ce46869f49a0374b874, 0xae2f78527dac72bf4ca19e2ab075162d9efae1f6c124d637536d53e72262bbce, 0xd75b68a6e17aa3591320bb564ff3db225b2755f1779f61d02993876c5b437e2d], (0x576562324a736f6e000000000000000000000000000000000000000000000000, 0x5075626c69635765623200000000000000000000000000000000000000000000, 1052549, 0, (https://swapi.info/api/people/3, GET, {\\\"Content-Type\\\":\\\"text/plain\\\"}, {}, {}, {name: .name, height: .height, mass: .mass, numberOfFilms: .films | length, uid: (.url | split(\\\"/\\\") | .[-1] | tonumber)}, {\\\"components\\\": [{\\\"internalType\\\": \\\"string\\\", \\\"name\\\": \\\"name\\\", \\\"type\\\": \\\"string\\\"},{\\\"internalType\\\": \\\"uint256\\\", \\\"name\\\": \\\"height\\\", \\\"type\\\": \\\"uint256\\\"},{\\\"internalType\\\": \\\"uint256\\\", \\\"name\\\": \\\"mass\\\", \\\"type\\\": \\\"uint256\\\"},{\\\"internalType\\\": \\\"uint256\\\", \\\"name\\\": \\\"numberOfFilms\\\", \\\"type\\\": \\\"uint256\\\"},{\\\"internalType\\\": \\\"uint256\\\", \\\"name\\\": \\\"uid\\\", \\\"type\\\": \\\"uint256\\\"}],\\\"name\\\": \\\"task\\\",\\\"type\\\": \\\"tuple\\\"}), (0x000000000000000000000000000000000000000000000000000000000000002000000000000000000000000000000000000000000000000000000000000000a00000000000000000000000000000000000000000000000000000000000000060000000000000000000000000000000000000000000000000000000000000002000000000000000000000000000000000000000000000000000000000000000060000000000000000000000000000000000000000000000000000000000000003000000000000000000000000000000000000000000000000000000000000000552322d4432000000000000000000000000000000000000000000000000000000)))"
      ],
      "transaction": {
        "from": "0x7a023e867369c1258b356b89a8864c799ef59959",
        "to": "0x131d3136c67be887a0ae5435d8adf242ef60d3e9",
        "gas": "0x4a673",
        "value": "0x0",
        "input": "0xcf9b520b0000000000000000000000000000000000000000000000000000000000000020000000000000000000000000000000000000000000000000000000000000004000000000000000000000000000000000000000000000000000000000000000e00000000000000000000000000000000000000000000000000000000000000004fce227143e1556706d6a37ef96d3699033a017e91ab0a3d96a62e67d5e0522360d497be6793493c1d0e7e76a4e4bd740346d850c1a791ce46869f49a0374b874ae2f78527dac72bf4ca19e2ab075162d9efae1f6c124d637536d53e72262bbced75b68a6e17aa3591320bb564ff3db225b2755f1779f61d02993876c5b437e2d576562324a736f6e0000000000000000000000000000000000000000000000005075626c696357656232000000000000000000000000000000000000000000000000000000000000000000000000000000000000000000000000000000100f85000000000000000000000000000000000000000000000000000000000000000000000000000000000000000000000000000000000000000000000000000000c0000000000000000000000000000000000000000000000000000000000000052000000000000000000000000000000000000000000000000000000000000000e00000000000000000000000000000000000000000000000000000000000000120000000000000000000000000000000000000000000000000000000000000016000000000000000000000000000000000000000000000000000000000000001a000000000000000000000000000000000000000000000000000000000000001e0000000000000000000000000000000000000000000000000000000000000022000000000000000000000000000000000000000000000000000000000000002c0000000000000000000000000000000000000000000000000000000000000001f68747470733a2f2f73776170692e696e666f2f6170692f70656f706c652f330000000000000000000000000000000000000000000000000000000000000000034745540000000000000000000000000000000000000000000000000000000000000000000000000000000000000000000000000000000000000000000000001d7b22436f6e74656e742d54797065223a22746578742f706c61696e227d00000000000000000000000000000000000000000000000000000000000000000000027b7d00000000000000000000000000000000000000000000000000000000000000000000000000000000000000000000000000000000000000000000000000027b7d00000000000000000000000000000000000000000000000000000000000000000000000000000000000000000000000000000000000000000000000000787b6e616d653a202e6e616d652c206865696768743a202e6865696768742c206d6173733a202e6d6173732c206e756d6265724f6646696c6d733a202e66696c6d73207c206c656e6774682c207569643a20282e75726c207c2073706c697428222f2229207c202e5b2d315d207c20746f6e756d626572297d000000000000000000000000000000000000000000000000000000000000000000000000000001737b22636f6d706f6e656e7473223a205b7b22696e7465726e616c54797065223a2022737472696e67222c20226e616d65223a20226e616d65222c202274797065223a2022737472696e67227d2c7b22696e7465726e616c54797065223a202275696e74323536222c20226e616d65223a2022686569676874222c202274797065223a202275696e74323536227d2c7b22696e7465726e616c54797065223a202275696e74323536222c20226e616d65223a20226d617373222c202274797065223a202275696e74323536227d2c7b22696e7465726e616c54797065223a202275696e74323536222c20226e616d65223a20226e756d6265724f6646696c6d73222c202274797065223a202275696e74323536227d2c7b22696e7465726e616c54797065223a202275696e74323536222c20226e616d65223a2022756964222c202274797065223a202275696e74323536227d5d2c226e616d65223a20227461736b222c2274797065223a20227475706c65227d0000000000000000000000000000000000000000000000000000000000000000000000000000000000000000200000000000000000000000000000000000000000000000000000000000000100000000000000000000000000000000000000000000000000000000000000002000000000000000000000000000000000000000000000000000000000000000a00000000000000000000000000000000000000000000000000000000000000060000000000000000000000000000000000000000000000000000000000000002000000000000000000000000000000000000000000000000000000000000000060000000000000000000000000000000000000000000000000000000000000003000000000000000000000000000000000000000000000000000000000000000552322d4432000000000000000000000000000000000000000000000000000000",
        "nonce": "0xf6",
        "chainId": "0x72"
      },
      "additionalContracts": [],
      "isFixedGasLimit": false
    }
  ],
  "receipts": [
    {
      "status": "0x1",
      "cumulativeGasUsed": "0x35dde",
      "logs": [
        {
          "address": "0x1000000000000000000000000000000000000002",
          "topics": [
            "0xe7aa66356adbd5e839ef210626f6d8f6f72109c17fadf4c4f9ca82b315ae79b4"
          ],
          "data": "0x000000000000000000000000c738fdcde9cd2fbd72618d36ed71008b8d001ba4000000000000000000000000000000000000000000000000000000000000421a",
          "blockHash": "0x89eb264723070327d63f2a80a5c266b6bad2b2dbf46e4e3a25a9abd1181e407d",
          "blockNumber": "0x131ebeb",
          "transactionHash": "0x85c171bde088330d1282d5900ac00a855ddae2d3f5488b05bbb831f9cc15e21f",
          "transactionIndex": "0x0",
          "logIndex": "0x0",
          "removed": false
        },
        {
          "address": "0x1000000000000000000000000000000000000002",
          "topics": [
            "0xe7aa66356adbd5e839ef210626f6d8f6f72109c17fadf4c4f9ca82b315ae79b4"
          ],
          "data": "0x000000000000000000000000d2a1bb23eb350814a30dd6f9de78bb2c8fdd9f1d0000000000000000000000000000000000000000000000000000000000004442",
          "blockHash": "0x89eb264723070327d63f2a80a5c266b6bad2b2dbf46e4e3a25a9abd1181e407d",
          "blockNumber": "0x131ebeb",
          "transactionHash": "0x85c171bde088330d1282d5900ac00a855ddae2d3f5488b05bbb831f9cc15e21f",
          "transactionIndex": "0x0",
          "logIndex": "0x1",
          "removed": false
        },
        {
          "address": "0x1000000000000000000000000000000000000002",
          "topics": [
            "0xe7aa66356adbd5e839ef210626f6d8f6f72109c17fadf4c4f9ca82b315ae79b4"
          ],
          "data": "0x0000000000000000000000006892bdbbb14e1c9bd46bf31e7bac94d038fc82a6000000000000000000000000000000000000000000000000000000000000422d",
          "blockHash": "0x89eb264723070327d63f2a80a5c266b6bad2b2dbf46e4e3a25a9abd1181e407d",
          "blockNumber": "0x131ebeb",
          "transactionHash": "0x85c171bde088330d1282d5900ac00a855ddae2d3f5488b05bbb831f9cc15e21f",
          "transactionIndex": "0x0",
          "logIndex": "0x2",
          "removed": false
        },
        {
          "address": "0x1000000000000000000000000000000000000002",
          "topics": [
            "0xe7aa66356adbd5e839ef210626f6d8f6f72109c17fadf4c4f9ca82b315ae79b4"
          ],
          "data": "0x000000000000000000000000bd33bdff04c357f7fc019e72d0504c24cf4aa0100000000000000000000000000000000000000000000000000000000000008f11",
          "blockHash": "0x89eb264723070327d63f2a80a5c266b6bad2b2dbf46e4e3a25a9abd1181e407d",
          "blockNumber": "0x131ebeb",
          "transactionHash": "0x85c171bde088330d1282d5900ac00a855ddae2d3f5488b05bbb831f9cc15e21f",
          "transactionIndex": "0x0",
          "logIndex": "0x3",
          "removed": false
        },
        {
          "address": "0x1000000000000000000000000000000000000002",
          "topics": [
            "0xe7aa66356adbd5e839ef210626f6d8f6f72109c17fadf4c4f9ca82b315ae79b4"
          ],
          "data": "0x000000000000000000000000a90db6d10f856799b10ef2a77ebcbf460ac71e520000000000000000000000000000000000000000000000000000000000003a66",
          "blockHash": "0x89eb264723070327d63f2a80a5c266b6bad2b2dbf46e4e3a25a9abd1181e407d",
          "blockNumber": "0x131ebeb",
          "transactionHash": "0x85c171bde088330d1282d5900ac00a855ddae2d3f5488b05bbb831f9cc15e21f",
          "transactionIndex": "0x0",
          "logIndex": "0x4",
          "removed": false
        },
        {
          "address": "0x1000000000000000000000000000000000000002",
          "topics": [
            "0xe7aa66356adbd5e839ef210626f6d8f6f72109c17fadf4c4f9ca82b315ae79b4"
          ],
          "data": "0x0000000000000000000000000b162ca3acf3482d3357972e12d794434085d839000000000000000000000000000000000000000000000000000000000001ffd0",
          "blockHash": "0x89eb264723070327d63f2a80a5c266b6bad2b2dbf46e4e3a25a9abd1181e407d",
          "blockNumber": "0x131ebeb",
          "transactionHash": "0x85c171bde088330d1282d5900ac00a855ddae2d3f5488b05bbb831f9cc15e21f",
          "transactionIndex": "0x0",
          "logIndex": "0x5",
          "removed": false
        }
      ],
      "logsBloom": "0x00020000000000000000000000000000000000000000000000000000000000000000000000000000000000000000000000000000000000000000000000000000000000000000000000400000000000000000000000000000000080000000000000000000000000000000000000000000000000000000000001000000000000000000000000000000000000000000000000000000000000000000000400000000080000000000000000000000000000000000000000000000000000000000000000000000000000000000000000000000000000000000000000000000000000000000000000000000000000000000000000000000000000000000000000000000",
      "type": "0x2",
      "transactionHash": "0x85c171bde088330d1282d5900ac00a855ddae2d3f5488b05bbb831f9cc15e21f",
      "transactionIndex": "0x0",
      "blockHash": "0x89eb264723070327d63f2a80a5c266b6bad2b2dbf46e4e3a25a9abd1181e407d",
      "blockNumber": "0x131ebeb",
      "gasUsed": "0x35dde",
      "effectiveGasPrice": "0xe8d4a5100",
      "from": "0x7a023e867369c1258b356b89a8864c799ef59959",
      "to": "0x131d3136c67be887a0ae5435d8adf242ef60d3e9",
      "contractAddress": null
    }
  ],
  "libraries": [],
  "pending": [],
  "returns": {},
  "timestamp": 1753165145732,
  "chain": 114,
  "commit": "f66fcef"
}